:020000040800F2
:10000000F008002061070008BD070008BD070008D0
:10001000BD070008BD070008BD070008000000007C
:10002000000000000000000000000000BD07000804
:10003000BD07000800000000BD070008BD0700085C
:10004000BD070008BD070008BD070008BD07000880
:10005000BD070008BD07000839030008BD070008F8
:10006000BD070008BD070008BD070008BD07000860
:10007000BD070008BD070008BD070008BD07000850
:10008000BD070008BD070008BD070008BD07000840
:10009000BD070008BD070008BD070008BD07000830
:1000A000BD070008BD070008BD070008BD07000820
:1000B00071030008BD070008BD070008BD07000860
:1000C000BD070008BD070008BD070008BD07000800
:1000D000BD070008BD07000809190008BD07000892
:1000E000890E0008BD070008BD070008BD0700080D
:1000F000BD070008BD070008BD070008BD070008D0
:10010000BD070008BD070008BD070008BD070008BF
:10011000BD070008BD070008BD070008BD070008AF
:10012000BD070008BD070008BD070008BD0700089F
:10013000BD070008BD070008BD070008BD0700088F
:10014000BD070008BD070008BD070008BD0700087F
:10015000BD070008BD070008BD070008BD0700086F
:10016000BD070008BD070008BD070008BD0700085F
:10017000BD070008BD070008BD070008BD0700084F
:10018000BD070008BD07000890B484B000AF034667
:100190000A46FB711346BB710023FB60BB7903F079
:1001A00003039B000F2202FA03F3FB601649BB799D
:1001B0009B08DBB21846144ABB799B08DBB20233BA
:1001C00052F82320FB68DB431A40831C41F82320AC
:1001D0000D48BB799B08DBB21C460B4ABB799B08D8
:1001E000DBB2023352F82320F979BB7903F0030321
:1001F0009B0001FA03F31A43A31C40F8232000BF1D
:100200001037BD4690BC70470038014080B588B0BB
:1002100000AF0121012000F0A7FB01214FF4804035
:1002200000F0DEFB0121012000F0BCFB06233B7740
:1002300000237B770023BB770123FB7707F11C03A7
:10024000184601F0ADFA01237B6100233B760C23B5
:100250007B760123BB7607F11403184601F0FCF905
:100260000123FB6000233B740123BB7403237B74D5
:100270000223FB7407F10C0319461A4800F0CEFB69
:1002800000210020FFF780FF4AF20F437B6049F610
:100290003F433B804FF480733B8100237B803B4690
:1002A00019464FF0804001F0E3FB1C233B7701230C
:1002B0007B770023BB770123FB7707F11C031846EC
:1002C00001F06EFA01214FF0804001F0A9FC0122FB
:1002D00001214FF0804001F055FC00BF2037BD46A2
:1002E00080BD00BF0000024080B400AF034B01227C
:1002F0001A6000BFBD4680BC704700BF10000020E0
:1003000080B500AF064B00221A6000214FF08040FC
:1003100001F018FC4FF0804300225A6200BF80BDFC
:100320001000002080B400AF024B1B681846BD4689
:1003300080BC70471000002080B500AF012001F0A4
:10034000FDF90346002B0ED0084B1B68002B07D08D
:1003500001214FF0804001F0F5FB022001F0E6F8AA
:10036000012001F00FFA00BF80BD00BF1000002087
:1003700080B500AF01214FF0804001F027FC03461B
:10038000002B0FD000214FF0804001F0DBFB00F08C
:100390000BF84FF0804300225A6201214FF0804059
:1003A00001F03EFC00BF80BD80B582B000AF0B48BD
:1003B00001F06EFA00237B6002E07B6801337B6012
:1003C0007B68074A9342F8DD064801F061FA064867
:1003D00001F05EFA00BF0837BD4680BDA41C0008CE
:1003E0003F420F00D01C0008E01C000880B58AB016
:1003F00000AF7860396000237B6200233B620023FA
:10040000FB610023BB617B681B8A9BB27B627B6ABA
:1004100023F440537B623B68DB881A467B6A1343B4
:100420007B627B6A9AB27B681A827B689B899BB2EB
:100430007B627B6A23F4B05323F00C037B623B683E
:100440009A883B681B8913439AB23B685B891343C4
:100450009BB21A467B6A13437B627B6A9AB27B68C3
:100460009A817B689B8A9BB27B627B6A23F4407390
:100470007B623B689B891A467B6A13437B627B6A7B
:100480009AB27B689A8207F10803184600F0C2F915
:100490007B68304A934203D07B682F4A934202D153
:1004A0007B693B6201E03B693B627B689B899BB255
:1004B0001BB2002B0CDA3A6A13469B0013449A00D5
:1004C0001A443B681B685B00B2FBF3F3FB610BE073
:1004D0003A6A13469B0013449A001A443B681B680F
:1004E0009B00B2FBF3F3FB61FB691C4AA2FB0323F5
:1004F0005B091B017B627B6A1B09642202FB03F31D
:10050000FA69D31ABB617B689B899BB21BB2002B33
:100510000CDABB69DB003233104AA2FB03235B0910
:1005200003F007037A6A13437B620BE0BB691B018C
:1005300032330A4AA2FB03235B0903F00F037A6AF2
:1005400013437B627B6A9AB27B681A8100BF2837AB
:10055000BD4680BD00100140001401401F85EB51D5
:1005600080B483B000AF78600B46FB70FB78002B43
:1005700008D07B689B899BB243F400539AB27B6896
:100580009A8107E07B689B899BB223F400539AB25F
:100590007B689A8100BF0C37BD4680BC704700BFA6
:1005A00080B483B000AF78600B467B807B88C3F358
:1005B00008039AB27B689A8000BF0C37BD4680BCA6
:1005C000704700BF80B483B000AF78607B689B88C1
:1005D0009BB2C3F308039BB218460C37BD4680BCE0
:1005E000704700BF80B487B000AF78600B467B8057
:1005F00013467B7000233B610023FB600023BB603C
:1006000000237B617B687B617B88DBB25B09DBB2AB
:100610003B617B8803F01F03FB600122FB6802FA49
:1006200003F3BB603B69012B03D17B690C337B6116
:1006300009E03B69022B03D17B6910337B6102E047
:100640007B6914337B617B78002B06D07B697A69E8
:100650001168BA680A431A6006E07B697A69116812
:10066000BA68D2430A401A6000BF1C37BD4680BC3E
:10067000704700BF80B485B000AF78600B467B80C8
:100680000023FB737B681B889AB27B8813409BB264
:10069000002B02D00123FB7301E00023FB73FB7BE3
:1006A00018461437BD4680BC704700BF80B487B081
:1006B00000AF78600B467B800023FB6000237B61EA
:1006C0000023BB600023FB747B88DBB25B09DBB2D9
:1006D000BB607B8803F01F037B6101227B6902FA08
:1006E00003F37B61BB68012B07D17B689B899BB2BD
:1006F0001A467B6913407B6111E0BB68022B07D16E
:100700007B681B8A9BB21A467B6913407B6106E0BB
:100710007B689B8A9BB21A467B6913407B617B880E
:100720001B0A9BB2FB600122FB6802FA03F3FB6029
:100730007B681B889BB21A46FB681340FB607B6991
:10074000002B05D0FB68002B02D00123FB7401E0D5
:100750000023FB74FB7C18461C37BD4680BC7047E9
:1007600080B582B000AF104B7B60104B3B6007E060
:100770003B681A1D3A607A68111D796012681A6028
:100780003B680B4A9342F3D30A480B494FF00002EF
:100790008842B8BF40F8042BFADB00F013F800BF22
:1007A0000837BD4680BD00BFDF1D000800000020E7
:1007B0001000002010000020EC00002080B400AFEA
:1007C000FEE700BF80B582B000AF00F053FC01210E
:1007D000082000F0C9F84FF470433B6001233B71DF
:1007E0000023BB7103237B710023FB713B46194639
:1007F000074800F013F900F047FA00F049FD012026
:1008000000F094FE01F0B6F8FFF700FDFEE700BF30
:10081000000C024080B489B000AF78600023BB6157
:1008200000237B610023FB6102233B610023FB600B
:100830000223BB60484B9B6803F00C03BB61BB69A0
:10084000042B07D0082B09D0002B3FD17B68434AEB
:100850001A603FE07B68424A1A603BE03E4B5B68AF
:1008600003F480039B0DFB603B4B5B6803F03F038D
:10087000BB60FB68002B0DD0394ABB68B2FBF3F2BA
:10088000354B596847F6C0730B409B0903FB02F3D5
:10089000FB610CE0314ABB68B2FBF3F22E4B5968A6
:1008A00047F6C0730B409B0903FB02F3FB612A4B25
:1008B0005B6803F440331B0C01335B003B61FA6956
:1008C0003B69B2FBF3F27B681A6003E07B68234A62
:1008D0001A6000BF204B9B6803F0F003BB61BB694B
:1008E0001B09BB611F4ABB6913441B78DBB27B61E8
:1008F0007B681A687B69DA407B685A60164B9B6894
:1009000003F4E053BB61BB699B0ABB61154ABB6939
:1009100013441B78DBB27B617B685A687B69DA40E1
:100920007B689A600C4B9B6803F46043BB61BB69B6
:100930005B0BBB610B4ABB6913441B78DBB27B6169
:100940007B685A687B69DA407B68DA6000BF2437CD
:10095000BD4680BC704700BF003802400024F40050
:1009600000127A000000002080B483B000AF7860ED
:100970000B46FB70FB78002B06D00949084B1A6B1D
:100980007B6813430B6306E00549054B1A6B7B68D4
:10099000DB4313400B6300BF0C37BD4680BC704780
:1009A0000038024080B483B000AF78600B46FB7023
:1009B000FB78002B06D00949084B1A6C7B6813435F
:1009C0000B6406E00549054B1A6C7B68DB4313405A
:1009D0000B6400BF0C37BD4680BC70470038024036
:1009E00080B483B000AF78600B46FB70FB78002BBF
:1009F00006D00949084B5A6C7B6813434B6406E0E8
:100A00000549054B5A6C7B68DB4313404B6400BFC0
:100A10000C37BD4680BC70470038024080B487B0B8
:100A200000AF7860396000237B6100233B610023C5
:100A3000FB6000237B6176E001227B6902FA03F30D
:100A40003B613B681A683B691340FB60FA683B698D
:100A50009A4265D17B681A687B695B00032101FAC1
:100A600003F3DB431A407B681A607B681A683B68B3
:100A70001B7919467B695B0001FA03F31A437B6813
:100A80001A603B681B79012B03D03B681B79022B52
:100A90002ED17B689A687B695B00032101FA03F31E
:100AA000DB431A407B689A607B689A683B685B7995
:100AB00019467B695B0001FA03F31A437B689A606D
:100AC0007B685A687B699BB2012101FA03F3DB431F
:100AD0001A407B685A607B685A683B689B79194664
:100AE0007B699BB201FA03F39BB21A437B685A609D
:100AF0007B68DA687B699BB25B00032101FA03F330
:100B0000DB431A407B68DA607B68DA683B68DB7934
:100B100019467B695B0001FA03F31A437B68DA60CC
:100B20007B6901337B617B690F2B85D900BF1C3743
:100B3000BD4680BC704700BF80B485B000AF786010
:100B40000B467B800023FB737B681A697B8813400C
:100B5000002B02D00123FB7301E00023FB73FB7B1E
:100B600018461437BD4680BC704700BF80B483B0C0
:100B700000AF78600B467B807B687A881A8300BF61
:100B80000C37BD4680BC704780B483B000AF78603E
:100B90000B467B807B687A885A8300BF0C37BD4642
:100BA00080BC704780B483B000AF78600B467B8018
:100BB00013467B707B78002B03D07B687A881A837E
:100BC00002E07B687A885A8300BF0C37BD4680BC40
:100BD000704700BF80B483B000AF78600B467B8065
:100BE0007B685A697B885A407B685A6100BF0C3722
:100BF000BD4680BC704700BF80B485B000AF786050
:100C00000B467B8013467B700023FB600023BB6098
:100C10007A787B8803F007039B0002FA03F3FB60FA
:100C20007B88DB089BB218467B88DB089BB21A46A0
:100C30007B68083253F822207B8803F007039B006F
:100C40000F2101FA03F3DB4302EA03017B6800F1A1
:100C5000080243F822107B88DB089BB21A467B68A7
:100C6000083253F82220FB681343BB607B88DB0803
:100C70009BB21A467B680832B96843F8221000BF5D
:100C80001437BD4680BC704780B586B000AF0121E7
:100C90001020FFF769FE01214FF48040FFF7A0FE0E
:100CA0004FF428433B6100233B750023BB750323AE
:100CB0007B750223FB7507F1100319462148FFF7E6
:100CC000ADFE4FF4AC433B6101233B750023BB7584
:100CD00003237B750023FB7507F1100319461948A0
:100CE000FFF79CFE28233B7300237B730023BB7319
:100CF0000123FB7307F10C03184600F051FD4FF47C
:100D000028437B6000233B7208237B720123BB7264
:100D10003B1D184600F0A0FC4FF4AC410948FFF71A
:100D200025FF0B210420FFF72FFA0D210420FFF7E8
:100D30002BFA0F210420FFF727FA00BF1837BD4612
:100D400080BD00BF0010024080B588B000AF0346F0
:100D5000FB71FB79232B12D1052000F0E7FB002368
:100D6000FB6102E0FB690133FB61FB69424A93428C
:100D7000F8DD012000F0DAFBFFF7B6FA78E0FFF7C4
:100D8000D1FA0346002B63D03C4B1B68002B02D1E9
:100D9000022000F0CBFBFB792A2B47D0374B1B6896
:100DA0005A1C36490A603649FA79CA54334B1B68D3
:100DB000032B35DD314B00221A60324A07F10C0358
:100DC0001068186007F10C03042219462C4800F043
:100DD00037FF0346002B12D1032000F0A7FBFFF7DB
:100DE0008FFA0023BB6102E0BB690133BB61BB69C1
:100DF000214A9342F8DD012000F098FB38E00420FE
:100E000000F094FB00237B6102E07B6901337B618E
:100E10007B69194A9342F8DD022000F087FB27E046
:100E2000FB790121184600F0CDF921E0134B1B6836
:100E3000002B04D0114B1B68013B104A13600F4B71
:100E40001B68DBB24633DBB2184600F013FB0FE041
:100E5000062000F06BFB00233B6102E03B6901339D
:100E60003B613B69044A9342F8DD012000F05EFBE0
:100E700000BF2037BD4680BD7FF0FA02140000207D
:100E800018000020EC1C000880B582B000AF4FF4C1
:100E9000006000F053FC0346002B0ED14FF40050CD
:100EA00000F04CFC0346002B07D14FF4004000F04B
:100EB00045FC0346002B00F0D48000237B6002E059
:100EC0007B6801337B607B68632BF9DD4FF4AC41B9
:100ED0006648FFF759FE4FF480416448FFF746FE2D
:100EE0004FF400516148FFF727FE0346002B02D064
:100EF0003123FB7098E04FF400415C48FFF71CFE83
:100F00000346002B02D03223FB708DE04FF40061CA
:100F10005648FFF711FE0346002B02D03323FB7027
:100F200082E04FF480415148FFF72EFE4FF40071EC
:100F30004E48FFF71BFE4FF400514C48FFF7FCFDF5
:100F40000346002B02D03423FB706DE04FF40041C8
:100F50004648FFF7F1FD0346002B02D03523FB7016
:100F600062E04FF400614148FFF7E6FD0346002BC5
:100F700002D03623FB7057E04FF400713B48FFF777
:100F800003FE4FF480613948FFF7F0FD4FF4005144
:100F90003648FFF7D1FD0346002B02D03723FB7004
:100FA00042E04FF400413148FFF7C6FD0346002BF5
:100FB00002D03823FB7037E04FF400612B48FFF775
:100FC000BBFD0346002B02D03923FB702CE04FF40D
:100FD00080612648FFF7D8FD4FF480512348FFF782
:100FE000C5FD4FF400512148FFF7A6FD0346002B35
:100FF00002D02A23FB7017E04FF400411B48FFF793
:101000009BFD0346002B02D03023FB700CE04FF415
:1010100000611648FFF790FD0346002B02D0232302
:10102000FB7001E00023FB70FB78002B03D0FB7802
:101030001846FFF789FE4FF4AC410C48FFF796FDC8
:101040004FF480410A48FFF7C5FD4FF4006000F0FF
:1010500099FB4FF4005000F095FB4FF4004000F076
:1010600091FB00BF0837BD4680BD00BF00100240A5
:10107000000C024080B500AF124A124B1B6843F0CF
:10108000010313600F4B00229A600E4A0D4B1B6840
:1010900023F0847323F4803313600A4B0A4A5A60A6
:1010A000084A084B1B6823F480231360054B002279
:1010B000DA6000F00DF8054B4FF000629A6000BF57
:1010C00080BD00BF003802401030002400ED00E079
:1010D00080B483B000AF00237B6000233B60354ABF
:1010E000344B1B6843F480331360324B1B6803F4AA
:1010F00000333B607B6801337B603B68002B03D18E
:101100007B68B3F5A06FF0D12A4B1B6803F4003362
:10111000002B02D001233B6001E000233B603B68D1
:10112000012B42D1234A234B1B6C43F080531364A1
:10113000214A214B1B6843F4804313601D4A1D4B19
:101140009B6893601B4A1B4B9B6843F4004393606E
:10115000184A184B9B6843F4A0539360154B174AE9
:101160005A60144A134B1B6843F08073136000BF2E
:10117000104B1B6803F00073002BF9D0104B40F2AA
:1011800005621A600B4A0B4B9B6823F003039360C4
:10119000084A084B9B6843F00203936000BF054B6D
:1011A0009B6803F00C03082BF9D100BF0C37BD4638
:1011B00080BC70470038024000700040085440076F
:1011C000003C024080B582B000AF03460A46FB7186
:1011D0001346BB71FB79BA791146184600F00CF83A
:1011E000FB791B01BA791146184600F005F800BFDB
:1011F0000837BD4680BD00BF80B584B000AF034650
:101200000A46FB711346BB71BB791A4620211F4861
:10121000FFF7C8FCFB7923F07F03DBB21A460121FC
:101220001A48FFF7BFFCFB7903F04003DBB21A4614
:1012300002211648FFF7B6FCFB7903F02003DBB26E
:101240001A4604211148FFF7ADFCFB7903F01003A7
:10125000DBB21A4608210D48FFF7A4FC10210B4809
:10126000FFF792FC0023FB6002E0FB680133FB60A8
:10127000FB6847F22F529342F7DD10210348FFF736
:1012800075FC00BF1037BD4680BD00BF0010024096
:1012900080B586B000AF01211020FFF765FB3F232A
:1012A0003B6001233B710023BB7103237B7100234F
:1012B000FB713B4619462948FFF7B0FB1021274830
:1012C000FFF754FC00237B6102E07B6901337B6103
:1012D0007B69234A9342F8DD00213020FFF78CFF21
:1012E00000233B6102E03B6901333B613B691D4ADE
:1012F0009342F8DD00213020FFF77EFF0023FB60E2
:1013000002E0FB680133FB60FB6842F20F7293421C
:10131000F7DD00213020FFF76FFF0023BB6002E004
:10132000BB680133BB60BB6842F20F729342F7DDCA
:1013300000212020FFF760FF082000F067F8002060
:1013400000F052F8022000F03DF800F00DF800F037
:1013500031F800BF1837BD4680BD00BF0010024005
:101360003F4B4C009F860100F0B591B000AF0021CB
:10137000002000F05DF80E4B1C463E4604F1400E86
:1013800035462346186859689A68DB680FC51034DB
:1013900010367445F4D13B464021184600F0AAF8B7
:1013A000002000F067F800BF4437BD46F0BD00BF25
:1013B000F01C000880B500AF00210120FFF702FFFC
:1013C00000BF80BD80B582B000AF0346FB71FB79E2
:1013D00043F00403DBB200211846FFF7F3FE00BF21
:1013E0000837BD4680BD00BF80B582B000AF034660
:1013F000FB71FB7943F00803DBB200211846FFF7CD
:10140000E1FE00BF0837BD4680BD00BF80B582B099
:1014100000AF0346FB71FB7943F02003DBB20021F0
:101420001846FFF7CFFE00BF0837BD4680BD00BF9E
:1014300080B582B000AF03460A46FB711346BB710C
:10144000FB79DB005BB203F038035BB243F040038F
:101450005AB297F9063003F007035BB213435BB24D
:10146000DBB200211846FFF7ADFE00BF0837BD46CE
:1014700080BD00BF80B582B000AF0346FB71FB7931
:1014800063F07F03DBB200211846FFF79BFE00BF2D
:101490000837BD4680BD00BF80B584B000AF78601E
:1014A0000023FB601BE0FB68102B03D14020FFF7FB
:1014B000E1FF11E0FB687A6813441B780A2B03D123
:1014C0004020FFF7D7FF07E0FB687A6813441B78DA
:1014D00001211846FFF776FEFB680133FB60FB68CD
:1014E0007A6813441B78002BDDD100BF1037BD464E
:1014F00080BD00BF80B584B000AF78603960002344
:10150000FB600AE0FB687A6813441B7801211846E7
:10151000FFF758FEFB680133FB60FA683B689A42AC
:10152000F0DB00BF1037BD4680BD00BF80B582B084
:1015300000AF78603E4B1A687B689A4272D03C4A92
:101540007B6813607B68013B052B69D801A252F8C8
:1015500023F000BF6D15000885150008A3150008CD
:10156000C7150008DF15000803160008FFF722FF63
:101570000420FFF739FF0320FFF77CFF2D48FFF71A
:101580008BFF4DE0FFF716FF0620FFF72DFF02202F
:10159000FFF770FF2848FFF77FFF4620FFF76AFF3D
:1015A0003EE0FFF707FF0420FFF71EFF0720FFF7CD
:1015B00061FF2248FFF770FF4020FFF75BFF2048E4
:1015C000FFF76AFF2CE0FFF7F5FE0420FFF70CFFA2
:1015D0000320FFF74FFF1B48FFF75EFF20E0FFF7F8
:1015E000E9FE0420FFF700FF0220FFF743FF164843
:1015F000FFF752FF4420FFF73DFF1448FFF74CFF71
:101600000EE0FFF7D7FE0420FFF7EEFE1048FFF7CD
:1016100043FF4320FFF72EFF0E48FFF73DFF00BFBB
:10162000012300E0002318460837BD4680BD00BFF7
:101630001C000020301D00083C1D00084C1D000847
:10164000501D0008601D00086C1D00087C1D00086E
:10165000881D00089C1D000880B485B000AF78602C
:101660000023FB60344BFB607B689B79002B4FD0E1
:101670003149314B1A687B681B68DB4313400B60B0
:101680002D492D4B5A687B681B68DB4313404B6028
:101690007B681B791A46FB681344FB60FB68FA6899
:1016A00011687A6812680A431A602349224B9A68C3
:1016B0007B681B68DB4313408B601F491E4BDA6855
:1016C0007B681B68DB431340CB607B685B79102B26
:1016D0000ED11949184B9A687B681B6813438B60BD
:1016E0001549154BDA687B681B681343CB601DE016
:1016F000114BFB607B685B791A46FB681344FB6007
:10170000FB68FA6811687A6812680A431A600DE08B
:101710007B681B791A46FB681344FB60FB68FA6818
:1017200011687A681268D2430A401A6000BF143701
:10173000BD4680BC704700BF003C014080B485B00E
:1017400000AF78600023FB730023BB600C4B1A686A
:101750007B681340BB600A4B5A697B681340002BBF
:1017600005D0BB68002B02D00123FB7301E00023EE
:10177000FB73FB7B18461437BD4680BC704700BF27
:10178000003C014080B483B000AF7860034A7B68BE
:10179000536100BF0C37BD4680BC7047003C014020
:1017A00080B485B000AF78600023FB730023BB7367
:1017B0000F237B737B68DB78002B38D0264BDB68EC
:1017C000DB4303F4E0631B0AFB73FB7BC3F10403FD
:1017D000BB737A7BFB7B42FA03F37B737B685B789A
:1017E0001A46BB7B02FA03F3FB737B689A787B7B18
:1017F0001340DAB2FB7B1343FB73FB7B1B01FB73D0
:10180000164A7B681B781344FA7B83F80023134A3B
:101810007B681B785B09DBB218467B681B7803F09A
:101820001F03012101FA03F342F820300FE00B49B6
:101830007B681B785B09DBB218467B681B7803F07A
:101840001F0301229A4000F1200341F8232000BF2A
:101850001437BD4680BC704700ED00E000E100E0B9
:1018600080B483B000AF0346FB71084997F9073095
:101870005B09FA7902F01F02012000FA02F241F836
:10188000232000BF0C37BD4680BC704700E100E05C
:1018900080B584B000AF78600023FB601BE000BF20
:1018A00080211748FEF7E6FE0346002BF8D0FB68C0
:1018B0005A1CFA601A467B6813441B789BB219467F
:1018C0000F48FEF76DFE00BF40210D48FEF7D2FE27
:1018D0000346002BF8D0FB687A6813441B78002B72
:1018E000DDD10023BB6002E0BB680133BB60BB6895
:1018F000044A9342F8DD00BF1037BD4680BD00BFEB
:10190000004400403F420F0080B582B000AF40F27B
:1019100025511448FEF7CAFE0346002B1DD011487E
:10192000FEF750FE0346FB70FB780A2B08D00E4BE7
:101930001B685A1C0C490A600C49FA78CA540CE01E
:10194000094B00221A6000237B6002E07B680133B0
:101950007B607B68064A9342F8DD00BF0837BD46CE
:1019600080BD00BF00440040200000202400002073
:10197000FFE0F50580B588B000AF374B00221A6054
:1019800001210120FEF7F0FF01214FF40030FFF7A5
:1019900009F8072202213148FFF72EF90023BB7610
:1019A0000123FB7602233B7604237B6102237B76B3
:1019B00007F1140319462948FFF730F807220321DD
:1019C0002648FFF719F902233B7608237B6107F1CC
:1019D000140319462148FFF721F84FF4E1337B60E7
:1019E00000233B8100237B810023BB8100233B82BA
:1019F0000C23FB813B1D19461948FEF7F7FC01211A
:101A00001748FEF7ADFD012240F225511448FEF7BC
:101A1000E9FD26233B7002237B700023BB7001236A
:101A2000FB703B461846FFF7BBFE2620FFF718FF6A
:101A30000C48FFF72DFF0023FB6102E0FB69013337
:101A4000FB61FB69084A9342F8DD0848FFF720FF75
:101A500000BF2037BD4680BD2000002000000240AE
:101A600000440040A81D00083F420F00BC1D0008B4
:101A700080B485B000AF786039600023FB817B685B
:101A80001B88FB817B68284A934213D07B68274AD6
:101A900093420FD07B68B3F1804F0BD07B68244A10
:101AA000934207D07B68234A934203D07B68224A43
:101AB000934208D1FB8923F07003FB813B685A886D
:101AC000FB891343FB817B681C4A93420CD07B68E3
:101AD0001B4A934208D0FB8923F44073FB813B6887
:101AE0001A89FB891343FB817B68FA891A803B685A
:101AF0005A687B68DA623B681A887B681A857B685B
:101B0000094A934203D07B68084A934204D13B6858
:101B10009B7A9AB27B681A867B6801229A8200BF00
:101B20001437BD4680BC70470000014000040140EE
:101B30000004004000080040000C0040001000407D
:101B40000014004080B483B000AF78600B46FB7097
:101B5000FB78002B08D07B681B889BB243F0010305
:101B60009AB27B681A8007E07B681B889BB223F0DF
:101B700001039AB27B681A8000BF0C37BD4680BC57
:101B8000704700BF80B483B000AF78600B467B80A5
:101B900013467B707B78002B08D07B689B899AB2B8
:101BA0007B8813439AB27B689A8109E07B689B89A2
:101BB0009AB27B88DB439BB213409AB27B689A81CE
:101BC00000BF0C37BD4680BC704700BF80B485B0F5
:101BD00000AF78600B467B800023FB730023BB8142
:101BE00000237B817B681B8A9AB27B881340BB8170
:101BF0007B689B899AB27B8813407B81BB89002BD1
:101C000005D07B89002B02D00123FB7301E0002368
:101C1000FB73FB7B18461437BD4680BC704700BF82
:101C200080B483B000AF78600B467B807B88DB4359
:101C30009AB27B681A8200BF0C37BD4680BC7047E1
:101C4000032A70B426D940EA01039B0711D0047817
:101C50000D78AC4222D10244431C05E013F8014B3D
:101C600011F8015FAC4219D19342F7D1002070BC4A
:101C700070470C4603461E682568AE42184621464A
:101C800003F1040304F10404E1D1043A032A1846E1
:101C90002146F0D8002ADAD11046E8E7601B70BC74
:101CA000704700BF41542B43495053544152543D57
:101CB00022544350222C223139322E3136382E30E4
:101CC0002E313036222C373737370D0A000000000E
:101CD00041542B43495053454E443D380D0A0000B2
:101CE00073656E646D61696C0000000031323334DD
:101CF000000000000000000000000E010F110F02A4
:101D000002040E1010110E0000000E111F100E0222
:101D10000C04060C04040E00020416191111110023
:101D200002040E1111110E0002040E100E011E000D
:101D300053616665486F757365000000506F64619C
:101D40006A20686173046F3A000000004F4B000086
:101D5000616C61726D2077790401637A6F6E79002E
:101D60005A046520686173046F210000416C617240
:101D70006D207A6F7374610400000000776C01635A
:101D80007A6F6E7900000000416C61726D20777986
:101D90000401637A6F6E79210000000077636907A0
:101DA0006E696A202300000041542B43574D4F4475
:101DB000455F4445463D310D0A00000041542B4328
:101DC000574A41505F4445463D226B6F6E6F7061CC
:0F1DD000222C223339363532343030220D0A00BE
:101DDF0000000000010203040102030406070809C2
:0400000508000000EF
:00000001FF
